:040000008A110F282A
:10000800FE00030E83120313A0000408A1000A08CF
:10001800A2008A11BF2B8A11112883134130840052
:100028005B308A117D240130DC0083018A112E2A7D
:10003800831218300313D4016329AD218A11831662
:100048001114AD214E309300080083120313AE0043
:10005800AF002F0884008A1139238A11003A031946
:1000680008002F0884008A1139238A1163218A1114
:10007800AF0A2D28AC00AD00F030AD052D087D216C
:100088008A112D0894218A112C0EF039AD007D219A
:100098008A112D0894290230B0004530AF00A930EC
:1000A800AE00AE0B5528AF0B5528B00B55285C2871
:1000B80000307D218A118230AF00DD30AE00AE0BFA
:1000C8006328AF0B632868281A3083120313B00023
:1000D8005E30AF008630AE00AE0B7028AF0B7028D4
:1000E800B00B7028000030307D218A113030942107
:1000F8008A110830AE00AE0B7F28303094218A1167
:100108002130AF007630AE00AE0B8828AF0B8828C0
:100118000000303094218A110730AF007D30AE00E6
:10012800AE0B9428AF0B942820307D218A11203003
:1001380094218A110730AF007D30AE00AE0BA228A3
:10014800AF0BA228283063218A110C3063218A1151
:10015800063063218A110230632983120313BA001F
:100168003130B5003A08BA0A84008A1139238A1155
:10017800BB003B0803190800253A0319C7283B08A8
:1001880035218A11B628B6013A08BA0A84008A11BC
:1001980039238A11BB00003A03193429643A031938
:1001A800D9280D3A0319D928B628350884008313AD
:1001B8000008B800840A0008B900B50AB50AB91FD2
:1001C800EC280330B604B809B909B80A0319B90A02
:1001D800BB01BB0A03103B0D013E84008A11392381
:1001E8008A11B3008A1139238A11B4003902031D18
:1001F800FF2833083802031C06290530BB0A3B06D2
:10020800031DEE283608033903190D292D30352131
:100218008A113B08B70030290A30AA00AB01031045
:10022800370D013E84008A1139238A11A3008A11EF
:1002380039238A11A4003908A6003808A500C4216A
:100248008A112408AD002308AC00EE218A112A087F
:10025800303EBB0035218A11B703370F1029B62865
:100268000800B0000B3A031D3B29D40108000830F0
:100278003006031D4229DA01DA0A08005A0B492917
:10028800300812228312DA010800300863218A112B
:100298005408031D5E29300803195E290430300212
:1002A80003185E290B30AF00A530AE00AE0B5A29FB
:1002B800AF0B5A2983120313D401D40A08008312FE
:1002C8000313AC00AD00F030AD055408031D2D1428
:1002D8002D087D218A112D0894218A112C0EF039C0
:1002E800AD005408031D2D142D087D218A112D08F9
:1002F800942983120313A800A901A90A83122908C3
:1003080003190800AD218A118C11280808389300B8
:100318008C1D8C29A9018316111F8229831280291B
:1003280083120313AB002B152B087D218A119C29FE
:100338009D290000831203132B112B087D218A119C
:100348005330AA00AA0BA629831203132B0888008E
:100358000800031083161419031400300318013021
:100368008312A3001F30A401831611058312A50070
:100378002304A6002408A700260403190800AD29B1
:10038800A701A801230824040319E929A901A90A36
:10039800A41BD2290310A30DA40DCB290310A70D6C
:1003A800A80D24082602031DDB2923082502031CA7
:1003B800E5292308A5022408031CA603A60227147E
:1003C8000310A40CA30CA90BD2292808A400270801
:1003D800A30008002A082B0403190D2AAE01AE0A4F
:1003E800AB1BFA290310AA0DAB0DF3292B082D021C
:1003F800031D002A2A082C02031C092A2A08AC0219
:100408002B08031CAD03AD020310AB0CAA0CAE0BFA
:10041800FA292D08AB002C08AA000800A3005B08E5
:100428000319132A83160C1A1D2A8312230899000C
:100438002B2A0C1283125808493E84002308831380
:1004480080000830D80A58020318D801DB03831645
:100458000C1608008A1126248A118A1121208A1173
:100468008A114F208A118B150B178B1742308A116E
:10047800B1208A110B308A11B1208A1101308A11FA
:100488003E208A112130BD007630BC00BC0B4A2AC0
:10049800BD0B4A2A00002A308A1129208A1102300D
:1004A800BE004530BD00A930BC00BC0B592ABD0BAD
:1004B800592ABE0B592A602A7D308A11B1208A1127
:1004C8000D30BE00AF30BD00C130BC00BC0B6A2A85
:1004D800BD0B6A2ABE0B6A2A00007F308A11B12040
:1004E8008A110D30BE00AF30BD00C130BC00BC0B5E
:1004F8007B2ABD0B7B2ABE0B7B2A00007F308A112A
:10050800B1208A110D30BE00AF30BD00C130BC0033
:10051800BC0B8C2ABD0B8C2ABE0B8C2A00007F30AA
:100528008A11B1208A110D30BE00AF30BD00C13034
:10053800BC00BC0B9D2ABD0B9D2ABE0B9D2A00004A
:100548007F308A11B1208A110D30BE00AF30BD0056
:10055800C130BC00BC0BAE2ABD0BAE2ABE0BAE2A06
:10056800000083120313BF01C0018A111C208A11E5
:100578000B30BE002630BD006630BC00BC0BC22A62
:10058800BD0BC22ABE0BC22AC92A83120313BF0A93
:100598000319C00A4008803AFF0080307F02031D1B
:1005A800D72A20303F02031CB92A59308A11B120BA
:1005B8008A11043088005C088A115F248A11083087
:1005C8008312031388005C088A115F248A11103093
:1005D8008312031388005C088A115F248A11203073
:1005E8008312031388005C088A115F248A11403043
:1005F8008312031388005C088A115F248A118030F3
:100608008312031388005C088A115F248A11403022
:100618008312031388005C088A115F248A11203032
:100628008312031388005C088A115F248A11103032
:100638008312031388005C088A115F248A1108302A
:100648008312031388005C088A115F248A118312BD
:10065800031355080319DD2A5C08B1006C30B20198
:100668008A11B1208A11D501DD2A03308A000408D5
:10067800840A82070034013400340A3400346434B4
:100688000034E8340334103427340B340134443450
:10069800693467346934743461346C3420345034C8
:1006A8006F347434203449346E34693474346934A2
:1006B80061346C3469347A3469346E346734203484
:1006C8002E342E342E340034443469346734503494
:1006D8006F347434203449346E3469347434693472
:1006E80061346C3469347A3469346E346734203454
:1006F8002E342E342E3400340834553441345234D8
:100708005434203449346E34693463346934613480
:100718006C3469347A34613464346F342E342E3452
:100728002E340A3400340B340134443469346734C9
:1007380050346F3474342034523465346134643442
:1007480079342034323467346F3400340B34C03495
:1007580043346F3475346E347434653472343A34D7
:1007680020342534643420346434423400340B3467
:10077800C0342E3400340B1CE52B0030061A01302F
:10078800D1000030861A0130D300510852060319EF
:10079800E02B5108031DE02B0130D500530851060A
:1007A800031DDC2B02305C02031CE02BDC03E02B76
:1007B80020305C02031CDC0A5108D20006080B102A
:1007C800F52B83160C1EEE2B83120C1EEE2B122417
:1007D8008A11F52B83168C1EF52B83128C1EF52B94
:1007E800FF23831222088A0021088400200E830038
:1007F800FE0E7E0E0900981C052C981398171812E7
:1008080018165708413E84001A08831380000830E0
:10081800D70A57020318D701D60A080008305B0226
:100828000318232C5908493E8400831300089900B3
:100838000830D90A59020318D901DB0A08008316BF
:100848000C12080040248A11292C83168C120C12D1
:1008580090308312980024308316980081309900D4
:100868008717071783120830D801D901DB00D70191
:10087800D60183168C1608008316880107100717FF
:1008880087178715071606168616811301308312F7
:100898009F00023083169F001F3085009101383079
:1008A80083129400313083169300803094008312B1
:1008B8008C118D110800A500A601A7012708803A10
:1008C800A30080302302031D6B2C25082602031881
:1008D8000800A33083120313A4005530A300A30B10
:1008E800732CA40B732C83120313A60A0319A70AEB
:1008F800622C64008001840A04060319003404068B
:020908007E2C43
:02400E003AFD79
:00000001FF
